{
    "_format": "hh3-artifact-1",
    "contractName": "TicketNFT",
    "sourceName": "contracts/TicketNFT.sol",
    "abi": [
        {
            "inputs": [],
            "stateMutability": "nonpayable",
            "type": "constructor"
        },
        {
            "inputs": [
                {
                    "internalType": "address",
                    "name": "sender",
                    "type": "address"
                },
                {
                    "internalType": "uint256",
                    "name": "tokenId",
                    "type": "uint256"
                },
                {
                    "internalType": "address",
                    "name": "owner",
                    "type": "address"
                }
            ],
            "name": "ERC721IncorrectOwner",
            "type": "error"
        },
        {
            "inputs": [
                {
                    "internalType": "address",
                    "name": "operator",
                    "type": "address"
                },
                {
                    "internalType": "uint256",
                    "name": "tokenId",
                    "type": "uint256"
                }
            ],
            "name": "ERC721InsufficientApproval",
            "type": "error"
        },
        {
            "inputs": [
                {
                    "internalType": "address",
                    "name": "approver",
                    "type": "address"
                }
            ],
            "name": "ERC721InvalidApprover",
            "type": "error"
        },
        {
            "inputs": [
                {
                    "internalType": "address",
                    "name": "operator",
                    "type": "address"
                }
            ],
            "name": "ERC721InvalidOperator",
            "type": "error"
        },
        {
            "inputs": [
                {
                    "internalType": "address",
                    "name": "owner",
                    "type": "address"
                }
            ],
            "name": "ERC721InvalidOwner",
            "type": "error"
        },
        {
            "inputs": [
                {
                    "internalType": "address",
                    "name": "receiver",
                    "type": "address"
                }
            ],
            "name": "ERC721InvalidReceiver",
            "type": "error"
        },
        {
            "inputs": [
                {
                    "internalType": "address",
                    "name": "sender",
                    "type": "address"
                }
            ],
            "name": "ERC721InvalidSender",
            "type": "error"
        },
        {
            "inputs": [
                {
                    "internalType": "uint256",
                    "name": "tokenId",
                    "type": "uint256"
                }
            ],
            "name": "ERC721NonexistentToken",
            "type": "error"
        },
        {
            "inputs": [
                {
                    "internalType": "address",
                    "name": "owner",
                    "type": "address"
                }
            ],
            "name": "OwnableInvalidOwner",
            "type": "error"
        },
        {
            "inputs": [
                {
                    "internalType": "address",
                    "name": "account",
                    "type": "address"
                }
            ],
            "name": "OwnableUnauthorizedAccount",
            "type": "error"
        },
        {
            "anonymous": false,
            "inputs": [
                {
                    "indexed": true,
                    "internalType": "address",
                    "name": "owner",
                    "type": "address"
                },
                {
                    "indexed": true,
                    "internalType": "address",
                    "name": "approved",
                    "type": "address"
                },
                {
                    "indexed": true,
                    "internalType": "uint256",
                    "name": "tokenId",
                    "type": "uint256"
                }
            ],
            "name": "Approval",
            "type": "event"
        },
        {
            "anonymous": false,
            "inputs": [
                {
                    "indexed": true,
                    "internalType": "address",
                    "name": "owner",
                    "type": "address"
                },
                {
                    "indexed": true,
                    "internalType": "address",
                    "name": "operator",
                    "type": "address"
                },
                {
                    "indexed": false,
                    "internalType": "bool",
                    "name": "approved",
                    "type": "bool"
                }
            ],
            "name": "ApprovalForAll",
            "type": "event"
        },
        {
            "anonymous": false,
            "inputs": [
                {
                    "indexed": false,
                    "internalType": "uint256",
                    "name": "_fromTokenId",
                    "type": "uint256"
                },
                {
                    "indexed": false,
                    "internalType": "uint256",
                    "name": "_toTokenId",
                    "type": "uint256"
                }
            ],
            "name": "BatchMetadataUpdate",
            "type": "event"
        },
        {
            "anonymous": false,
            "inputs": [
                {
                    "indexed": false,
                    "internalType": "uint256",
                    "name": "_tokenId",
                    "type": "uint256"
                }
            ],
            "name": "MetadataUpdate",
            "type": "event"
        },
        {
            "anonymous": false,
            "inputs": [
                {
                    "indexed": true,
                    "internalType": "address",
                    "name": "previousOwner",
                    "type": "address"
                },
                {
                    "indexed": true,
                    "internalType": "address",
                    "name": "newOwner",
                    "type": "address"
                }
            ],
            "name": "OwnershipTransferred",
            "type": "event"
        },
        {
            "anonymous": false,
            "inputs": [
                {
                    "indexed": true,
                    "internalType": "address",
                    "name": "from",
                    "type": "address"
                },
                {
                    "indexed": true,
                    "internalType": "address",
                    "name": "to",
                    "type": "address"
                },
                {
                    "indexed": true,
                    "internalType": "uint256",
                    "name": "tokenId",
                    "type": "uint256"
                }
            ],
            "name": "Transfer",
            "type": "event"
        },
        {
            "inputs": [
                {
                    "internalType": "address",
                    "name": "to",
                    "type": "address"
                },
                {
                    "internalType": "uint256",
                    "name": "tokenId",
                    "type": "uint256"
                }
            ],
            "name": "approve",
            "outputs": [],
            "stateMutability": "nonpayable",
            "type": "function"
        },
        {
            "inputs": [
                {
                    "internalType": "address",
                    "name": "owner",
                    "type": "address"
                }
            ],
            "name": "balanceOf",
            "outputs": [
                {
                    "internalType": "uint256",
                    "name": "",
                    "type": "uint256"
                }
            ],
            "stateMutability": "view",
            "type": "function"
        },
        {
            "inputs": [
                {
                    "internalType": "uint256",
                    "name": "tokenId",
                    "type": "uint256"
                }
            ],
            "name": "buyResaleTicket",
            "outputs": [],
            "stateMutability": "payable",
            "type": "function"
        },
        {
            "inputs": [
                {
                    "internalType": "uint256",
                    "name": "tokenId",
                    "type": "uint256"
                }
            ],
            "name": "getApproved",
            "outputs": [
                {
                    "internalType": "address",
                    "name": "",
                    "type": "address"
                }
            ],
            "stateMutability": "view",
            "type": "function"
        },
        {
            "inputs": [
                {
                    "internalType": "address",
                    "name": "owner",
                    "type": "address"
                },
                {
                    "internalType": "address",
                    "name": "operator",
                    "type": "address"
                }
            ],
            "name": "isApprovedForAll",
            "outputs": [
                {
                    "internalType": "bool",
                    "name": "",
                    "type": "bool"
                }
            ],
            "stateMutability": "view",
            "type": "function"
        },
        {
            "inputs": [
                {
                    "internalType": "uint256",
                    "name": "tokenId",
                    "type": "uint256"
                },
                {
                    "internalType": "uint256",
                    "name": "price",
                    "type": "uint256"
                }
            ],
            "name": "listTicketForSale",
            "outputs": [],
            "stateMutability": "nonpayable",
            "type": "function"
        },
        {
            "inputs": [
                {
                    "internalType": "string",
                    "name": "uri",
                    "type": "string"
                }
            ],
            "name": "mintTicket",
            "outputs": [
                {
                    "internalType": "uint256",
                    "name": "",
                    "type": "uint256"
                }
            ],
            "stateMutability": "payable",
            "type": "function"
        },
        {
            "inputs": [],
            "name": "name",
            "outputs": [
                {
                    "internalType": "string",
                    "name": "",
                    "type": "string"
                }
            ],
            "stateMutability": "view",
            "type": "function"
        },
        {
            "inputs": [],
            "name": "owner",
            "outputs": [
                {
                    "internalType": "address",
                    "name": "",
                    "type": "address"
                }
            ],
            "stateMutability": "view",
            "type": "function"
        },
        {
            "inputs": [
                {
                    "internalType": "uint256",
                    "name": "tokenId",
                    "type": "uint256"
                }
            ],
            "name": "ownerOf",
            "outputs": [
                {
                    "internalType": "address",
                    "name": "",
                    "type": "address"
                }
            ],
            "stateMutability": "view",
            "type": "function"
        },
        {
            "inputs": [],
            "name": "renounceOwnership",
            "outputs": [],
            "stateMutability": "nonpayable",
            "type": "function"
        },
        {
            "inputs": [],
            "name": "royaltyPercentage",
            "outputs": [
                {
                    "internalType": "uint256",
                    "name": "",
                    "type": "uint256"
                }
            ],
            "stateMutability": "view",
            "type": "function"
        },
        {
            "inputs": [
                {
                    "internalType": "address",
                    "name": "from",
                    "type": "address"
                },
                {
                    "internalType": "address",
                    "name": "to",
                    "type": "address"
                },
                {
                    "internalType": "uint256",
                    "name": "tokenId",
                    "type": "uint256"
                }
            ],
            "name": "safeTransferFrom",
            "outputs": [],
            "stateMutability": "nonpayable",
            "type": "function"
        },
        {
            "inputs": [
                {
                    "internalType": "address",
                    "name": "from",
                    "type": "address"
                },
                {
                    "internalType": "address",
                    "name": "to",
                    "type": "address"
                },
                {
                    "internalType": "uint256",
                    "name": "tokenId",
                    "type": "uint256"
                },
                {
                    "internalType": "bytes",
                    "name": "data",
                    "type": "bytes"
                }
            ],
            "name": "safeTransferFrom",
            "outputs": [],
            "stateMutability": "nonpayable",
            "type": "function"
        },
        {
            "inputs": [
                {
                    "internalType": "address",
                    "name": "operator",
                    "type": "address"
                },
                {
                    "internalType": "bool",
                    "name": "approved",
                    "type": "bool"
                }
            ],
            "name": "setApprovalForAll",
            "outputs": [],
            "stateMutability": "nonpayable",
            "type": "function"
        },
        {
            "inputs": [
                {
                    "internalType": "bytes4",
                    "name": "interfaceId",
                    "type": "bytes4"
                }
            ],
            "name": "supportsInterface",
            "outputs": [
                {
                    "internalType": "bool",
                    "name": "",
                    "type": "bool"
                }
            ],
            "stateMutability": "view",
            "type": "function"
        },
        {
            "inputs": [],
            "name": "symbol",
            "outputs": [
                {
                    "internalType": "string",
                    "name": "",
                    "type": "string"
                }
            ],
            "stateMutability": "view",
            "type": "function"
        },
        {
            "inputs": [
                {
                    "internalType": "uint256",
                    "name": "",
                    "type": "uint256"
                }
            ],
            "name": "tickets",
            "outputs": [
                {
                    "internalType": "uint256",
                    "name": "originalPrice",
                    "type": "uint256"
                },
                {
                    "internalType": "uint256",
                    "name": "resalePrice",
                    "type": "uint256"
                },
                {
                    "internalType": "bool",
                    "name": "isForSale",
                    "type": "bool"
                }
            ],
            "stateMutability": "view",
            "type": "function"
        },
        {
            "inputs": [
                {
                    "internalType": "uint256",
                    "name": "tokenId",
                    "type": "uint256"
                }
            ],
            "name": "tokenURI",
            "outputs": [
                {
                    "internalType": "string",
                    "name": "",
                    "type": "string"
                }
            ],
            "stateMutability": "view",
            "type": "function"
        },
        {
            "inputs": [
                {
                    "internalType": "address",
                    "name": "from",
                    "type": "address"
                },
                {
                    "internalType": "address",
                    "name": "to",
                    "type": "address"
                },
                {
                    "internalType": "uint256",
                    "name": "tokenId",
                    "type": "uint256"
                }
            ],
            "name": "transferFrom",
            "outputs": [],
            "stateMutability": "nonpayable",
            "type": "function"
        },
        {
            "inputs": [
                {
                    "internalType": "address",
                    "name": "newOwner",
                    "type": "address"
                }
            ],
            "name": "transferOwnership",
            "outputs": [],
            "stateMutability": "nonpayable",
            "type": "function"
        },
        {
            "inputs": [],
            "name": "withdrawFunds",
            "outputs": [],
            "stateMutability": "nonpayable",
            "type": "function"
        }
    ],
    "bytecode": "0x60806040526005600955348015610014575f5ffd5b50336040518060400160405280601081526020017f564b55204576656e74205469636b6574000000000000000000000000000000008152506040518060400160405280600481526020017f564b555400000000000000000000000000000000000000000000000000000000815250815f90816100909190610428565b5080600190816100a09190610428565b5050505f73ffffffffffffffffffffffffffffffffffffffff168173ffffffffffffffffffffffffffffffffffffffff1603610113575f6040517f1e4fbdf700000000000000000000000000000000000000000000000000000000815260040161010a9190610536565b60405180910390fd5b6101228161012860201b60201c565b5061054f565b5f60075f9054906101000a900473ffffffffffffffffffffffffffffffffffffffff1690508160075f6101000a81548173ffffffffffffffffffffffffffffffffffffffff021916908373ffffffffffffffffffffffffffffffffffffffff1602179055508173ffffffffffffffffffffffffffffffffffffffff168173ffffffffffffffffffffffffffffffffffffffff167f8be0079c531659141344cd1fd0a4f28419497f9722a3daafe3b4186f6b6457e060405160405180910390a35050565b5f81519050919050565b7f4e487b71000000000000000000000000000000000000000000000000000000005f52604160045260245ffd5b7f4e487b71000000000000000000000000000000000000000000000000000000005f52602260045260245ffd5b5f600282049050600182168061026657607f821691505b60208210810361027957610278610222565b5b50919050565b5f819050815f5260205f209050919050565b5f6020601f8301049050919050565b5f82821b905092915050565b5f600883026102db7fffffffffffffffffffffffffffffffffffffffffffffffffffffffffffffffff826102a0565b6102e586836102a0565b95508019841693508086168417925050509392505050565b5f819050919050565b5f819050919050565b5f61032961032461031f846102fd565b610306565b6102fd565b9050919050565b5f819050919050565b6103428361030f565b61035661034e82610330565b8484546102ac565b825550505050565b5f5f905090565b61036d61035e565b610378818484610339565b505050565b5b8181101561039b576103905f82610365565b60018101905061037e565b5050565b601f8211156103e0576103b18161027f565b6103ba84610291565b810160208510156103c9578190505b6103dd6103d585610291565b83018261037d565b50505b505050565b5f82821c905092915050565b5f6104005f19846008026103e5565b1980831691505092915050565b5f61041883836103f1565b9150826002028217905092915050565b610431826101eb565b67ffffffffffffffff81111561044a576104496101f5565b5b610454825461024f565b61045f82828561039f565b5f60209050601f831160018114610490575f841561047e578287015190505b610488858261040d565b8655506104ef565b601f19841661049e8661027f565b5f5b828110156104c5578489015182556001820191506020850194506020810190506104a0565b868310156104e257848901516104de601f8916826103f1565b8355505b6001600288020188555050505b505050505050565b5f73ffffffffffffffffffffffffffffffffffffffff82169050919050565b5f610520826104f7565b9050919050565b61053081610516565b82525050565b5f6020820190506105495f830184610527565b92915050565b6132cb8061055c5f395ff3fe608060405260043610610134575f3560e01c8063715018a6116100aa578063a22cb4651161006e578063a22cb465146103fe578063b88d4fde14610426578063c87b56dd1461044e578063d524d32d1461048a578063e985e9c5146104b2578063f2fde38b146104ee57610134565b8063715018a61461033a5780638a71bb2d146103505780638da5cb5b1461037a57806395d89b41146103a457806396651ecf146103ce57610134565b806323b872dd116100fc57806323b872dd1461021e57806324600fc31461024657806342842e0e1461025c57806350b44712146102845780636352211e146102c257806370a08231146102fe57610134565b806301ffc9a71461013857806306fdde0314610174578063081812fc1461019e578063095ea7b3146101da5780631d9c5d5c14610202575b5f5ffd5b348015610143575f5ffd5b5061015e600480360381019061015991906122e5565b610516565b60405161016b919061232a565b60405180910390f35b34801561017f575f5ffd5b50610188610576565b60405161019591906123b3565b60405180910390f35b3480156101a9575f5ffd5b506101c460048036038101906101bf9190612406565b610605565b6040516101d19190612470565b60405180910390f35b3480156101e5575f5ffd5b5061020060048036038101906101fb91906124b3565b610620565b005b61021c60048036038101906102179190612406565b610636565b005b348015610229575f5ffd5b50610244600480360381019061023f91906124f1565b61085a565b005b348015610251575f5ffd5b5061025a610959565b005b348015610267575f5ffd5b50610282600480360381019061027d91906124f1565b6109f5565b005b34801561028f575f5ffd5b506102aa60048036038101906102a59190612406565b610a14565b6040516102b993929190612550565b60405180910390f35b3480156102cd575f5ffd5b506102e860048036038101906102e39190612406565b610a46565b6040516102f59190612470565b60405180910390f35b348015610309575f5ffd5b50610324600480360381019061031f9190612585565b610a57565b60405161033191906125b0565b60405180910390f35b348015610345575f5ffd5b5061034e610b0d565b005b34801561035b575f5ffd5b50610364610b20565b60405161037191906125b0565b60405180910390f35b348015610385575f5ffd5b5061038e610b26565b60405161039b9190612470565b60405180910390f35b3480156103af575f5ffd5b506103b8610b4e565b6040516103c591906123b3565b60405180910390f35b6103e860048036038101906103e391906126f5565b610bde565b6040516103f591906125b0565b60405180910390f35b348015610409575f5ffd5b50610424600480360381019061041f9190612766565b610cb9565b005b348015610431575f5ffd5b5061044c60048036038101906104479190612842565b610ccf565b005b348015610459575f5ffd5b50610474600480360381019061046f9190612406565b610cf4565b60405161048191906123b3565b60405180910390f35b348015610495575f5ffd5b506104b060048036038101906104ab91906128c2565b610d70565b005b3480156104bd575f5ffd5b506104d860048036038101906104d39190612900565b610ec9565b6040516104e5919061232a565b60405180910390f35b3480156104f9575f5ffd5b50610514600480360381019061050f9190612585565b610f57565b005b5f634906490660e01b7bffffffffffffffffffffffffffffffffffffffffffffffffffffffff1916827bffffffffffffffffffffffffffffffffffffffffffffffffffffffff1916148061056f575061056e82610fdb565b5b9050919050565b60605f80546105849061296b565b80601f01602080910402602001604051908101604052809291908181526020018280546105b09061296b565b80156105fb5780601f106105d2576101008083540402835291602001916105fb565b820191905f5260205f20905b8154815290600101906020018083116105de57829003601f168201915b5050505050905090565b5f61060f826110bc565b5061061982611142565b9050919050565b610632828261062d61117b565b611182565b5050565b5f600a5f8381526020019081526020015f20905060011515816002015f9054906101000a900460ff161515146106a1576040517f08c379a0000000000000000000000000000000000000000000000000000000008152600401610698906129e5565b60405180910390fd5b806001015434146106e7576040517f08c379a00000000000000000000000000000000000000000000000000000000081526004016106de90612a73565b60405180910390fd5b5f6106f183610a46565b90503373ffffffffffffffffffffffffffffffffffffffff168173ffffffffffffffffffffffffffffffffffffffff1603610761576040517f08c379a000000000000000000000000000000000000000000000000000000000815260040161075890612b01565b60405180910390fd5b5f6064600954346107729190612b4c565b61077c9190612bba565b90505f813461078b9190612bea565b90505f846002015f6101000a81548160ff02191690831515021790555034845f01819055505f84600101819055506107c4833387611194565b6107cc610b26565b73ffffffffffffffffffffffffffffffffffffffff166108fc8390811502906040515f60405180830381858888f1935050505015801561080e573d5f5f3e3d5ffd5b508273ffffffffffffffffffffffffffffffffffffffff166108fc8290811502906040515f60405180830381858888f19350505050158015610852573d5f5f3e3d5ffd5b505050505050565b5f73ffffffffffffffffffffffffffffffffffffffff168273ffffffffffffffffffffffffffffffffffffffff16036108ca575f6040517f64a0ae920000000000000000000000000000000000000000000000000000000081526004016108c19190612470565b60405180910390fd5b5f6108dd83836108d861117b565b6112fc565b90508373ffffffffffffffffffffffffffffffffffffffff168173ffffffffffffffffffffffffffffffffffffffff1614610953578382826040517f64283d7b00000000000000000000000000000000000000000000000000000000815260040161094a93929190612c1d565b60405180910390fd5b50505050565b610961611507565b5f4790505f81116109a7576040517f08c379a000000000000000000000000000000000000000000000000000000000815260040161099e90612c9c565b60405180910390fd5b6109af610b26565b73ffffffffffffffffffffffffffffffffffffffff166108fc8290811502906040515f60405180830381858888f193505050501580156109f1573d5f5f3e3d5ffd5b5050565b610a0f83838360405180602001604052805f815250610ccf565b505050565b600a602052805f5260405f205f91509050805f015490806001015490806002015f9054906101000a900460ff16905083565b5f610a50826110bc565b9050919050565b5f5f73ffffffffffffffffffffffffffffffffffffffff168273ffffffffffffffffffffffffffffffffffffffff1603610ac8575f6040517f89c62b64000000000000000000000000000000000000000000000000000000008152600401610abf9190612470565b60405180910390fd5b60035f8373ffffffffffffffffffffffffffffffffffffffff1673ffffffffffffffffffffffffffffffffffffffff1681526020019081526020015f20549050919050565b610b15611507565b610b1e5f61158e565b565b60095481565b5f60075f9054906101000a900473ffffffffffffffffffffffffffffffffffffffff16905090565b606060018054610b5d9061296b565b80601f0160208091040260200160405190810160405280929190818152602001828054610b899061296b565b8015610bd45780601f10610bab57610100808354040283529160200191610bd4565b820191905f5260205f20905b815481529060010190602001808311610bb757829003601f168201915b5050505050905090565b5f5f3411610c21576040517f08c379a0000000000000000000000000000000000000000000000000000000008152600401610c1890612d04565b60405180910390fd5b5f60085f815480929190610c3490612d22565b919050559050610c443382611651565b610c4e818461166e565b60405180606001604052803481526020015f81526020015f1515815250600a5f8381526020019081526020015f205f820151815f0155602082015181600101556040820151816002015f6101000a81548160ff02191690831515021790555090505080915050919050565b610ccb610cc461117b565b83836116c8565b5050565b610cda84848461085a565b610cee610ce561117b565b858585856118a1565b50505050565b6060610cff826110bc565b505f610d09611a4d565b90505f610d1584611a63565b90505f825103610d29578092505050610d6b565b5f81511115610d5d578181604051602001610d45929190612da3565b60405160208183030381529060405292505050610d6b565b610d6684611b04565b925050505b919050565b3373ffffffffffffffffffffffffffffffffffffffff16610d9083610a46565b73ffffffffffffffffffffffffffffffffffffffff1614610de6576040517f08c379a0000000000000000000000000000000000000000000000000000000008152600401610ddd90612e10565b60405180910390fd5b5f600a5f8481526020019081526020015f2090505f6064606e835f0154610e0d9190612b4c565b610e179190612bba565b905080831115610e5c576040517f08c379a0000000000000000000000000000000000000000000000000000000008152600401610e5390612e9e565b60405180910390fd5b5f8311610e9e576040517f08c379a0000000000000000000000000000000000000000000000000000000008152600401610e9590612f06565b60405180910390fd5b8282600101819055506001826002015f6101000a81548160ff02191690831515021790555050505050565b5f60055f8473ffffffffffffffffffffffffffffffffffffffff1673ffffffffffffffffffffffffffffffffffffffff1681526020019081526020015f205f8373ffffffffffffffffffffffffffffffffffffffff1673ffffffffffffffffffffffffffffffffffffffff1681526020019081526020015f205f9054906101000a900460ff16905092915050565b610f5f611507565b5f73ffffffffffffffffffffffffffffffffffffffff168173ffffffffffffffffffffffffffffffffffffffff1603610fcf575f6040517f1e4fbdf7000000000000000000000000000000000000000000000000000000008152600401610fc69190612470565b60405180910390fd5b610fd88161158e565b50565b5f7f80ac58cd000000000000000000000000000000000000000000000000000000007bffffffffffffffffffffffffffffffffffffffffffffffffffffffff1916827bffffffffffffffffffffffffffffffffffffffffffffffffffffffff191614806110a557507f5b5e139f000000000000000000000000000000000000000000000000000000007bffffffffffffffffffffffffffffffffffffffffffffffffffffffff1916827bffffffffffffffffffffffffffffffffffffffffffffffffffffffff1916145b806110b557506110b482611b6a565b5b9050919050565b5f5f6110c783611bd3565b90505f73ffffffffffffffffffffffffffffffffffffffff168173ffffffffffffffffffffffffffffffffffffffff160361113957826040517f7e27328900000000000000000000000000000000000000000000000000000000815260040161113091906125b0565b60405180910390fd5b80915050919050565b5f60045f8381526020019081526020015f205f9054906101000a900473ffffffffffffffffffffffffffffffffffffffff169050919050565b5f33905090565b61118f8383836001611c0c565b505050565b5f73ffffffffffffffffffffffffffffffffffffffff168273ffffffffffffffffffffffffffffffffffffffff1603611204575f6040517f64a0ae920000000000000000000000000000000000000000000000000000000081526004016111fb9190612470565b60405180910390fd5b5f61121083835f6112fc565b90505f73ffffffffffffffffffffffffffffffffffffffff168173ffffffffffffffffffffffffffffffffffffffff160361128257816040517f7e27328900000000000000000000000000000000000000000000000000000000815260040161127991906125b0565b60405180910390fd5b8373ffffffffffffffffffffffffffffffffffffffff168173ffffffffffffffffffffffffffffffffffffffff16146112f6578382826040517f64283d7b0000000000000000000000000000000000000000000000000000000081526004016112ed93929190612c1d565b60405180910390fd5b50505050565b5f5f61130784611bd3565b90505f73ffffffffffffffffffffffffffffffffffffffff168373ffffffffffffffffffffffffffffffffffffffff161461134857611347818486611dcb565b5b5f73ffffffffffffffffffffffffffffffffffffffff168173ffffffffffffffffffffffffffffffffffffffff16146113d3576113875f855f5f611c0c565b600160035f8373ffffffffffffffffffffffffffffffffffffffff1673ffffffffffffffffffffffffffffffffffffffff1681526020019081526020015f205f82825403925050819055505b5f73ffffffffffffffffffffffffffffffffffffffff168573ffffffffffffffffffffffffffffffffffffffff161461145257600160035f8773ffffffffffffffffffffffffffffffffffffffff1673ffffffffffffffffffffffffffffffffffffffff1681526020019081526020015f205f82825401925050819055505b8460025f8681526020019081526020015f205f6101000a81548173ffffffffffffffffffffffffffffffffffffffff021916908373ffffffffffffffffffffffffffffffffffffffff160217905550838573ffffffffffffffffffffffffffffffffffffffff168273ffffffffffffffffffffffffffffffffffffffff167fddf252ad1be2c89b69c2b068fc378daa952ba7f163c4a11628f55a4df523b3ef60405160405180910390a4809150509392505050565b61150f61117b565b73ffffffffffffffffffffffffffffffffffffffff1661152d610b26565b73ffffffffffffffffffffffffffffffffffffffff161461158c5761155061117b565b6040517f118cdaa70000000000000000000000000000000000000000000000000000000081526004016115839190612470565b60405180910390fd5b565b5f60075f9054906101000a900473ffffffffffffffffffffffffffffffffffffffff1690508160075f6101000a81548173ffffffffffffffffffffffffffffffffffffffff021916908373ffffffffffffffffffffffffffffffffffffffff1602179055508173ffffffffffffffffffffffffffffffffffffffff168173ffffffffffffffffffffffffffffffffffffffff167f8be0079c531659141344cd1fd0a4f28419497f9722a3daafe3b4186f6b6457e060405160405180910390a35050565b61166a828260405180602001604052805f815250611e8e565b5050565b8060065f8481526020019081526020015f20908161168c91906130c4565b507ff8e1a15aba9398e019f0b49df1a4fde98ee17ae345cb5f6b5e2c27f5033e8ce7826040516116bc91906125b0565b60405180910390a15050565b5f73ffffffffffffffffffffffffffffffffffffffff168373ffffffffffffffffffffffffffffffffffffffff1603611738575f6040517fa9fbf51f00000000000000000000000000000000000000000000000000000000815260040161172f9190612470565b60405180910390fd5b5f73ffffffffffffffffffffffffffffffffffffffff168273ffffffffffffffffffffffffffffffffffffffff16036117a857816040517f5b08ba1800000000000000000000000000000000000000000000000000000000815260040161179f9190612470565b60405180910390fd5b8060055f8573ffffffffffffffffffffffffffffffffffffffff1673ffffffffffffffffffffffffffffffffffffffff1681526020019081526020015f205f8473ffffffffffffffffffffffffffffffffffffffff1673ffffffffffffffffffffffffffffffffffffffff1681526020019081526020015f205f6101000a81548160ff0219169083151502179055508173ffffffffffffffffffffffffffffffffffffffff168373ffffffffffffffffffffffffffffffffffffffff167f17307eab39ab6107e8899845ad3d59bd9653f200f220920489ca2b5937696c3183604051611894919061232a565b60405180910390a3505050565b5f8373ffffffffffffffffffffffffffffffffffffffff163b1115611a46578273ffffffffffffffffffffffffffffffffffffffff1663150b7a02868685856040518563ffffffff1660e01b81526004016118ff94939291906131e5565b6020604051808303815f875af192505050801561193a57506040513d601f19601f820116820180604052508101906119379190613243565b60015b6119bb573d805f8114611968576040519150601f19603f3d011682016040523d82523d5f602084013e61196d565b606091505b505f8151036119b357836040517f64a0ae920000000000000000000000000000000000000000000000000000000081526004016119aa9190612470565b60405180910390fd5b805160208201fd5b63150b7a0260e01b7bffffffffffffffffffffffffffffffffffffffffffffffffffffffff1916817bffffffffffffffffffffffffffffffffffffffffffffffffffffffff191614611a4457836040517f64a0ae92000000000000000000000000000000000000000000000000000000008152600401611a3b9190612470565b60405180910390fd5b505b5050505050565b606060405180602001604052805f815250905090565b606060065f8381526020019081526020015f208054611a819061296b565b80601f0160208091040260200160405190810160405280929190818152602001828054611aad9061296b565b8015611af85780601f10611acf57610100808354040283529160200191611af8565b820191905f5260205f20905b815481529060010190602001808311611adb57829003601f168201915b50505050509050919050565b6060611b0f826110bc565b505f611b19611a4d565b90505f815111611b375760405180602001604052805f815250611b62565b80611b4184611eb1565b604051602001611b52929190612da3565b6040516020818303038152906040525b915050919050565b5f7f01ffc9a7000000000000000000000000000000000000000000000000000000007bffffffffffffffffffffffffffffffffffffffffffffffffffffffff1916827bffffffffffffffffffffffffffffffffffffffffffffffffffffffff1916149050919050565b5f60025f8381526020019081526020015f205f9054906101000a900473ffffffffffffffffffffffffffffffffffffffff169050919050565b8080611c4457505f73ffffffffffffffffffffffffffffffffffffffff168273ffffffffffffffffffffffffffffffffffffffff1614155b15611d76575f611c53846110bc565b90505f73ffffffffffffffffffffffffffffffffffffffff168373ffffffffffffffffffffffffffffffffffffffff1614158015611cbd57508273ffffffffffffffffffffffffffffffffffffffff168173ffffffffffffffffffffffffffffffffffffffff1614155b8015611cd05750611cce8184610ec9565b155b15611d1257826040517fa9fbf51f000000000000000000000000000000000000000000000000000000008152600401611d099190612470565b60405180910390fd5b8115611d7457838573ffffffffffffffffffffffffffffffffffffffff168273ffffffffffffffffffffffffffffffffffffffff167f8c5be1e5ebec7d5bd14f71427d1e84f3dd0314c0f7b2291e5b200ac8c7c3b92560405160405180910390a45b505b8360045f8581526020019081526020015f205f6101000a81548173ffffffffffffffffffffffffffffffffffffffff021916908373ffffffffffffffffffffffffffffffffffffffff16021790555050505050565b611dd6838383611f7b565b611e89575f73ffffffffffffffffffffffffffffffffffffffff168373ffffffffffffffffffffffffffffffffffffffff1603611e4a57806040517f7e273289000000000000000000000000000000000000000000000000000000008152600401611e4191906125b0565b60405180910390fd5b81816040517f177e802f000000000000000000000000000000000000000000000000000000008152600401611e8092919061326e565b60405180910390fd5b505050565b611e98838361203b565b611eac611ea361117b565b5f8585856118a1565b505050565b60605f6001611ebf8461212e565b0190505f8167ffffffffffffffff811115611edd57611edc6125d1565b5b6040519080825280601f01601f191660200182016040528015611f0f5781602001600182028036833780820191505090505b5090505f82602083010190505b600115611f70578080600190039150507f3031323334353637383961626364656600000000000000000000000000000000600a86061a8153600a8581611f6557611f64612b8d565b5b0494505f8503611f1c575b819350505050919050565b5f5f73ffffffffffffffffffffffffffffffffffffffff168373ffffffffffffffffffffffffffffffffffffffff161415801561203257508273ffffffffffffffffffffffffffffffffffffffff168473ffffffffffffffffffffffffffffffffffffffff161480611ff35750611ff28484610ec9565b5b8061203157508273ffffffffffffffffffffffffffffffffffffffff1661201983611142565b73ffffffffffffffffffffffffffffffffffffffff16145b5b90509392505050565b5f73ffffffffffffffffffffffffffffffffffffffff168273ffffffffffffffffffffffffffffffffffffffff16036120ab575f6040517f64a0ae920000000000000000000000000000000000000000000000000000000081526004016120a29190612470565b60405180910390fd5b5f6120b783835f6112fc565b90505f73ffffffffffffffffffffffffffffffffffffffff168173ffffffffffffffffffffffffffffffffffffffff1614612129575f6040517f73c6ac6e0000000000000000000000000000000000000000000000000000000081526004016121209190612470565b60405180910390fd5b505050565b5f5f5f90507a184f03e93ff9f4daa797ed6e38ed64bf6a1f010000000000000000831061218a577a184f03e93ff9f4daa797ed6e38ed64bf6a1f01000000000000000083816121805761217f612b8d565b5b0492506040810190505b6d04ee2d6d415b85acef810000000083106121c7576d04ee2d6d415b85acef810000000083816121bd576121bc612b8d565b5b0492506020810190505b662386f26fc1000083106121f657662386f26fc1000083816121ec576121eb612b8d565b5b0492506010810190505b6305f5e100831061221f576305f5e100838161221557612214612b8d565b5b0492506008810190505b612710831061224457612710838161223a57612239612b8d565b5b0492506004810190505b60648310612267576064838161225d5761225c612b8d565b5b0492506002810190505b600a8310612276576001810190505b80915050919050565b5f604051905090565b5f5ffd5b5f5ffd5b5f7fffffffff0000000000000000000000000000000000000000000000000000000082169050919050565b6122c481612290565b81146122ce575f5ffd5b50565b5f813590506122df816122bb565b92915050565b5f602082840312156122fa576122f9612288565b5b5f612307848285016122d1565b91505092915050565b5f8115159050919050565b61232481612310565b82525050565b5f60208201905061233d5f83018461231b565b92915050565b5f81519050919050565b5f82825260208201905092915050565b8281835e5f83830152505050565b5f601f19601f8301169050919050565b5f61238582612343565b61238f818561234d565b935061239f81856020860161235d565b6123a88161236b565b840191505092915050565b5f6020820190508181035f8301526123cb818461237b565b905092915050565b5f819050919050565b6123e5816123d3565b81146123ef575f5ffd5b50565b5f81359050612400816123dc565b92915050565b5f6020828403121561241b5761241a612288565b5b5f612428848285016123f2565b91505092915050565b5f73ffffffffffffffffffffffffffffffffffffffff82169050919050565b5f61245a82612431565b9050919050565b61246a81612450565b82525050565b5f6020820190506124835f830184612461565b92915050565b61249281612450565b811461249c575f5ffd5b50565b5f813590506124ad81612489565b92915050565b5f5f604083850312156124c9576124c8612288565b5b5f6124d68582860161249f565b92505060206124e7858286016123f2565b9150509250929050565b5f5f5f6060848603121561250857612507612288565b5b5f6125158682870161249f565b93505060206125268682870161249f565b9250506040612537868287016123f2565b9150509250925092565b61254a816123d3565b82525050565b5f6060820190506125635f830186612541565b6125706020830185612541565b61257d604083018461231b565b949350505050565b5f6020828403121561259a57612599612288565b5b5f6125a78482850161249f565b91505092915050565b5f6020820190506125c35f830184612541565b92915050565b5f5ffd5b5f5ffd5b7f4e487b71000000000000000000000000000000000000000000000000000000005f52604160045260245ffd5b6126078261236b565b810181811067ffffffffffffffff82111715612626576126256125d1565b5b80604052505050565b5f61263861227f565b905061264482826125fe565b919050565b5f67ffffffffffffffff821115612663576126626125d1565b5b61266c8261236b565b9050602081019050919050565b828183375f83830152505050565b5f61269961269484612649565b61262f565b9050828152602081018484840111156126b5576126b46125cd565b5b6126c0848285612679565b509392505050565b5f82601f8301126126dc576126db6125c9565b5b81356126ec848260208601612687565b91505092915050565b5f6020828403121561270a57612709612288565b5b5f82013567ffffffffffffffff8111156127275761272661228c565b5b612733848285016126c8565b91505092915050565b61274581612310565b811461274f575f5ffd5b50565b5f813590506127608161273c565b92915050565b5f5f6040838503121561277c5761277b612288565b5b5f6127898582860161249f565b925050602061279a85828601612752565b9150509250929050565b5f67ffffffffffffffff8211156127be576127bd6125d1565b5b6127c78261236b565b9050602081019050919050565b5f6127e66127e1846127a4565b61262f565b905082815260208101848484011115612802576128016125cd565b5b61280d848285612679565b509392505050565b5f82601f830112612829576128286125c9565b5b81356128398482602086016127d4565b91505092915050565b5f5f5f5f6080858703121561285a57612859612288565b5b5f6128678782880161249f565b94505060206128788782880161249f565b9350506040612889878288016123f2565b925050606085013567ffffffffffffffff8111156128aa576128a961228c565b5b6128b687828801612815565b91505092959194509250565b5f5f604083850312156128d8576128d7612288565b5b5f6128e5858286016123f2565b92505060206128f6858286016123f2565b9150509250929050565b5f5f6040838503121561291657612915612288565b5b5f6129238582860161249f565b92505060206129348582860161249f565b9150509250929050565b7f4e487b71000000000000000000000000000000000000000000000000000000005f52602260045260245ffd5b5f600282049050600182168061298257607f821691505b6020821081036129955761299461293e565b5b50919050565b7f5665206e6179206b686f6e672064756f632072616f2062616e000000000000005f82015250565b5f6129cf60198361234d565b91506129da8261299b565b602082019050919050565b5f6020820190508181035f8301526129fc816129c3565b9050919050565b7f536f207469656e207468616e6820746f616e206b686f6e67206b686f7020766f5f8201527f69206769612062616e0000000000000000000000000000000000000000000000602082015250565b5f612a5d60298361234d565b9150612a6882612a03565b604082019050919050565b5f6020820190508181035f830152612a8a81612a51565b9050919050565b7f42616e206b686f6e6720746865207475206d756120766520637561206368696e5f8201527f68206d696e680000000000000000000000000000000000000000000000000000602082015250565b5f612aeb60268361234d565b9150612af682612a91565b604082019050919050565b5f6020820190508181035f830152612b1881612adf565b9050919050565b7f4e487b71000000000000000000000000000000000000000000000000000000005f52601160045260245ffd5b5f612b56826123d3565b9150612b61836123d3565b9250828202612b6f816123d3565b91508282048414831517612b8657612b85612b1f565b5b5092915050565b7f4e487b71000000000000000000000000000000000000000000000000000000005f52601260045260245ffd5b5f612bc4826123d3565b9150612bcf836123d3565b925082612bdf57612bde612b8d565b5b828204905092915050565b5f612bf4826123d3565b9150612bff836123d3565b9250828203905081811115612c1757612c16612b1f565b5b92915050565b5f606082019050612c305f830186612461565b612c3d6020830185612541565b612c4a6040830184612461565b949350505050565b7f4b686f6e6720636f207469656e206465207275740000000000000000000000005f82015250565b5f612c8660148361234d565b9150612c9182612c52565b602082019050919050565b5f6020820190508181035f830152612cb381612c7a565b9050919050565b7f4769612076652070686169206c6f6e20686f6e203000000000000000000000005f82015250565b5f612cee60158361234d565b9150612cf982612cba565b602082019050919050565b5f6020820190508181035f830152612d1b81612ce2565b9050919050565b5f612d2c826123d3565b91507fffffffffffffffffffffffffffffffffffffffffffffffffffffffffffffffff8203612d5e57612d5d612b1f565b5b600182019050919050565b5f81905092915050565b5f612d7d82612343565b612d878185612d69565b9350612d9781856020860161235d565b80840191505092915050565b5f612dae8285612d73565b9150612dba8284612d73565b91508190509392505050565b7f42616e206b686f6e6720706861692063687520736f20687575207665206e61795f82015250565b5f612dfa60208361234d565b9150612e0582612dc6565b602082019050919050565b5f6020820190508181035f830152612e2781612dee565b9050919050565b7f4769612062616e206c6169206b686f6e672064756f632076756f7420717561205f8201527f313130252067696120676f630000000000000000000000000000000000000000602082015250565b5f612e88602c8361234d565b9150612e9382612e2e565b604082019050919050565b5f6020820190508181035f830152612eb581612e7c565b9050919050565b7f4769612062616e2070686169206c6f6e20686f6e2030000000000000000000005f82015250565b5f612ef060168361234d565b9150612efb82612ebc565b602082019050919050565b5f6020820190508181035f830152612f1d81612ee4565b9050919050565b5f819050815f5260205f209050919050565b5f6020601f8301049050919050565b5f82821b905092915050565b5f60088302612f807fffffffffffffffffffffffffffffffffffffffffffffffffffffffffffffffff82612f45565b612f8a8683612f45565b95508019841693508086168417925050509392505050565b5f819050919050565b5f612fc5612fc0612fbb846123d3565b612fa2565b6123d3565b9050919050565b5f819050919050565b612fde83612fab565b612ff2612fea82612fcc565b848454612f51565b825550505050565b5f5f905090565b613009612ffa565b613014818484612fd5565b505050565b5b818110156130375761302c5f82613001565b60018101905061301a565b5050565b601f82111561307c5761304d81612f24565b61305684612f36565b81016020851015613065578190505b61307961307185612f36565b830182613019565b50505b505050565b5f82821c905092915050565b5f61309c5f1984600802613081565b1980831691505092915050565b5f6130b4838361308d565b9150826002028217905092915050565b6130cd82612343565b67ffffffffffffffff8111156130e6576130e56125d1565b5b6130f0825461296b565b6130fb82828561303b565b5f60209050601f83116001811461312c575f841561311a578287015190505b61312485826130a9565b86555061318b565b601f19841661313a86612f24565b5f5b828110156131615784890151825560018201915060208501945060208101905061313c565b8683101561317e578489015161317a601f89168261308d565b8355505b6001600288020188555050505b505050505050565b5f81519050919050565b5f82825260208201905092915050565b5f6131b782613193565b6131c1818561319d565b93506131d181856020860161235d565b6131da8161236b565b840191505092915050565b5f6080820190506131f85f830187612461565b6132056020830186612461565b6132126040830185612541565b818103606083015261322481846131ad565b905095945050505050565b5f8151905061323d816122bb565b92915050565b5f6020828403121561325857613257612288565b5b5f6132658482850161322f565b91505092915050565b5f6040820190506132815f830185612461565b61328e6020830184612541565b939250505056fea2646970667358221220e3644911db32fc3f9b94ef1db1ca8f05cac0028a49eca17dd2ec9fb620b8e12c64736f6c634300081c0033",
    "linkReferences": {},
    "deployedLinkReferences": {},
    "immutableReferences": {},
    "inputSourceName": "project/contracts/TicketNFT.sol",
    "buildInfoId": "solc-0_8_28-2c80f384ec4e626ea5d5dd162b54b4592e6c98bc"
}