{
  "_format": "hh3-artifact-1",
  "contractName": "TicketMarketplace",
  "sourceName": "contracts/TicketMarketplace.sol",
  "abi": [
    {
      "inputs": [],
      "name": "ReentrancyGuardReentrantCall",
      "type": "error"
    },
    {
      "anonymous": false,
      "inputs": [
        {
          "indexed": true,
          "internalType": "address",
          "name": "nftContract",
          "type": "address"
        },
        {
          "indexed": true,
          "internalType": "uint256",
          "name": "tokenId",
          "type": "uint256"
        },
        {
          "indexed": false,
          "internalType": "address",
          "name": "seller",
          "type": "address"
        }
      ],
      "name": "ListingCancelled",
      "type": "event"
    },
    {
      "anonymous": false,
      "inputs": [
        {
          "indexed": true,
          "internalType": "address",
          "name": "nftContract",
          "type": "address"
        },
        {
          "indexed": true,
          "internalType": "uint256",
          "name": "tokenId",
          "type": "uint256"
        },
        {
          "indexed": false,
          "internalType": "address",
          "name": "seller",
          "type": "address"
        },
        {
          "indexed": false,
          "internalType": "uint256",
          "name": "price",
          "type": "uint256"
        }
      ],
      "name": "TicketListed",
      "type": "event"
    },
    {
      "anonymous": false,
      "inputs": [
        {
          "indexed": true,
          "internalType": "address",
          "name": "nftContract",
          "type": "address"
        },
        {
          "indexed": true,
          "internalType": "uint256",
          "name": "tokenId",
          "type": "uint256"
        },
        {
          "indexed": false,
          "internalType": "address",
          "name": "buyer",
          "type": "address"
        },
        {
          "indexed": false,
          "internalType": "uint256",
          "name": "price",
          "type": "uint256"
        }
      ],
      "name": "TicketSold",
      "type": "event"
    },
    {
      "inputs": [
        {
          "internalType": "address",
          "name": "nftContract",
          "type": "address"
        },
        {
          "internalType": "uint256",
          "name": "tokenId",
          "type": "uint256"
        }
      ],
      "name": "buyTicket",
      "outputs": [],
      "stateMutability": "payable",
      "type": "function"
    },
    {
      "inputs": [
        {
          "internalType": "address",
          "name": "nftContract",
          "type": "address"
        },
        {
          "internalType": "uint256",
          "name": "tokenId",
          "type": "uint256"
        }
      ],
      "name": "cancelListing",
      "outputs": [],
      "stateMutability": "nonpayable",
      "type": "function"
    },
    {
      "inputs": [
        {
          "internalType": "address",
          "name": "",
          "type": "address"
        },
        {
          "internalType": "uint256",
          "name": "",
          "type": "uint256"
        }
      ],
      "name": "lastSalePrice",
      "outputs": [
        {
          "internalType": "uint256",
          "name": "",
          "type": "uint256"
        }
      ],
      "stateMutability": "view",
      "type": "function"
    },
    {
      "inputs": [
        {
          "internalType": "address",
          "name": "nftContract",
          "type": "address"
        },
        {
          "internalType": "uint256",
          "name": "tokenId",
          "type": "uint256"
        },
        {
          "internalType": "uint256",
          "name": "price",
          "type": "uint256"
        }
      ],
      "name": "listTicket",
      "outputs": [],
      "stateMutability": "nonpayable",
      "type": "function"
    },
    {
      "inputs": [
        {
          "internalType": "address",
          "name": "",
          "type": "address"
        },
        {
          "internalType": "uint256",
          "name": "",
          "type": "uint256"
        }
      ],
      "name": "listings",
      "outputs": [
        {
          "internalType": "address",
          "name": "seller",
          "type": "address"
        },
        {
          "internalType": "uint256",
          "name": "price",
          "type": "uint256"
        },
        {
          "internalType": "bool",
          "name": "isActive",
          "type": "bool"
        }
      ],
      "stateMutability": "view",
      "type": "function"
    }
  ],
  "bytecode": "0x6080604052348015600e575f5ffd5b5060016029601f603360201b60201c565b605c60201b60201c565b5f01819055506065565b5f7f9b779b17422d0df92223018b32b4d1fa46e071723d6817e2486d003becc55f005f1b905090565b5f819050919050565b6118ad806100725f395ff3fe608060405260043610610048575f3560e01c806207df301461004c5780631d66b15c1461008a57806366a5ef2f146100b2578063b2ddee06146100ce578063bdd690e5146100f6575b5f5ffd5b348015610057575f5ffd5b50610072600480360381019061006d9190611041565b610132565b604051610081939291906110b7565b60405180910390f35b348015610095575f5ffd5b506100b060048036038101906100ab91906110ec565b61018d565b005b6100cc60048036038101906100c79190611041565b610697565b005b3480156100d9575f5ffd5b506100f460048036038101906100ef9190611041565b610c5e565b005b348015610101575f5ffd5b5061011c60048036038101906101179190611041565b610ec5565b604051610129919061113c565b60405180910390f35b5f602052815f5260405f20602052805f5260405f205f9150915050805f015f9054906101000a900473ffffffffffffffffffffffffffffffffffffffff1690806001015490806002015f9054906101000a900460ff16905083565b5f8390503373ffffffffffffffffffffffffffffffffffffffff168173ffffffffffffffffffffffffffffffffffffffff16636352211e856040518263ffffffff1660e01b81526004016101e1919061113c565b602060405180830381865afa1580156101fc573d5f5f3e3d5ffd5b505050506040513d601f19601f820116820180604052508101906102209190611169565b73ffffffffffffffffffffffffffffffffffffffff1614610276576040517f08c379a000000000000000000000000000000000000000000000000000000000815260040161026d906111ee565b60405180910390fd5b3073ffffffffffffffffffffffffffffffffffffffff168173ffffffffffffffffffffffffffffffffffffffff1663081812fc856040518263ffffffff1660e01b81526004016102c6919061113c565b602060405180830381865afa1580156102e1573d5f5f3e3d5ffd5b505050506040513d601f19601f820116820180604052508101906103059190611169565b73ffffffffffffffffffffffffffffffffffffffff16148061039d57508073ffffffffffffffffffffffffffffffffffffffff1663e985e9c533306040518363ffffffff1660e01b815260040161035d92919061120c565b602060405180830381865afa158015610378573d5f5f3e3d5ffd5b505050506040513d601f19601f8201168201806040525081019061039c919061125d565b5b6103dc576040517f08c379a00000000000000000000000000000000000000000000000000000000081526004016103d3906112d2565b60405180910390fd5b5f821161041e576040517f08c379a00000000000000000000000000000000000000000000000000000000081526004016104159061133a565b60405180910390fd5b5f60015f8673ffffffffffffffffffffffffffffffffffffffff1673ffffffffffffffffffffffffffffffffffffffff1681526020019081526020015f205f8581526020019081526020015f205490505f81036104f0578173ffffffffffffffffffffffffffffffffffffffff16632f0751cb856040518263ffffffff1660e01b81526004016104ae919061113c565b602060405180830381865afa1580156104c9573d5f5f3e3d5ffd5b505050506040513d601f19601f820116820180604052508101906104ed919061136c565b90505b5f6064606e8361050091906113c4565b61050a9190611432565b90508084111561054f576040517f08c379a0000000000000000000000000000000000000000000000000000000008152600401610546906114d2565b60405180910390fd5b60405180606001604052803373ffffffffffffffffffffffffffffffffffffffff168152602001858152602001600115158152505f5f8873ffffffffffffffffffffffffffffffffffffffff1673ffffffffffffffffffffffffffffffffffffffff1681526020019081526020015f205f8781526020019081526020015f205f820151815f015f6101000a81548173ffffffffffffffffffffffffffffffffffffffff021916908373ffffffffffffffffffffffffffffffffffffffff160217905550602082015181600101556040820151816002015f6101000a81548160ff021916908315150217905550905050848673ffffffffffffffffffffffffffffffffffffffff167f2557d31ebd8593fa06c935e1d0292184d80caac7706ef5e5b49f4afe2a761c4433876040516106879291906114f0565b60405180910390a3505050505050565b61069f610ee5565b5f5f5f8473ffffffffffffffffffffffffffffffffffffffff1673ffffffffffffffffffffffffffffffffffffffff1681526020019081526020015f205f8381526020019081526020015f206040518060600160405290815f82015f9054906101000a900473ffffffffffffffffffffffffffffffffffffffff1673ffffffffffffffffffffffffffffffffffffffff1673ffffffffffffffffffffffffffffffffffffffff16815260200160018201548152602001600282015f9054906101000a900460ff161515151581525050905080604001516107b4576040517f08c379a00000000000000000000000000000000000000000000000000000000081526004016107ab90611561565b60405180910390fd5b806020015134146107fa576040517f08c379a00000000000000000000000000000000000000000000000000000000081526004016107f1906115ef565b60405180910390fd5b805f015173ffffffffffffffffffffffffffffffffffffffff163373ffffffffffffffffffffffffffffffffffffffff160361086b576040517f08c379a00000000000000000000000000000000000000000000000000000000081526004016108629061167d565b60405180910390fd5b5f839050815f015173ffffffffffffffffffffffffffffffffffffffff168173ffffffffffffffffffffffffffffffffffffffff16636352211e856040518263ffffffff1660e01b81526004016108c2919061113c565b602060405180830381865afa1580156108dd573d5f5f3e3d5ffd5b505050506040513d601f19601f820116820180604052508101906109019190611169565b73ffffffffffffffffffffffffffffffffffffffff1614610957576040517f08c379a000000000000000000000000000000000000000000000000000000000815260040161094e9061170b565b60405180910390fd5b5f5f8573ffffffffffffffffffffffffffffffffffffffff1673ffffffffffffffffffffffffffffffffffffffff1681526020019081526020015f205f8481526020019081526020015f205f5f82015f6101000a81549073ffffffffffffffffffffffffffffffffffffffff0219169055600182015f9055600282015f6101000a81549060ff021916905550505f5f8273ffffffffffffffffffffffffffffffffffffffff16632a55205a86346040518363ffffffff1660e01b8152600401610a21929190611729565b6040805180830381865afa158015610a3b573d5f5f3e3d5ffd5b505050506040513d601f19601f82011682018060405250810190610a5f9190611750565b915091505f8134610a70919061178e565b90503460015f8973ffffffffffffffffffffffffffffffffffffffff1673ffffffffffffffffffffffffffffffffffffffff1681526020019081526020015f205f8881526020019081526020015f20819055508373ffffffffffffffffffffffffffffffffffffffff166342842e0e865f015133896040518463ffffffff1660e01b8152600401610b03939291906117c1565b5f604051808303815f87803b158015610b1a575f5ffd5b505af1158015610b2c573d5f5f3e3d5ffd5b505050505f82118015610b6b57505f73ffffffffffffffffffffffffffffffffffffffff168373ffffffffffffffffffffffffffffffffffffffff1614155b15610bb5578273ffffffffffffffffffffffffffffffffffffffff166108fc8390811502906040515f60405180830381858888f19350505050158015610bb3573d5f5f3e3d5ffd5b505b845f015173ffffffffffffffffffffffffffffffffffffffff166108fc8290811502906040515f60405180830381858888f19350505050158015610bfb573d5f5f3e3d5ffd5b50858773ffffffffffffffffffffffffffffffffffffffff167f49e9aba94312dc088a5507c015f2ab10b1d96c546f7f006cf76dd0d27f9a2df23334604051610c459291906114f0565b60405180910390a35050505050610c5a610f07565b5050565b5f5f5f8473ffffffffffffffffffffffffffffffffffffffff1673ffffffffffffffffffffffffffffffffffffffff1681526020019081526020015f205f8381526020019081526020015f206040518060600160405290815f82015f9054906101000a900473ffffffffffffffffffffffffffffffffffffffff1673ffffffffffffffffffffffffffffffffffffffff1673ffffffffffffffffffffffffffffffffffffffff16815260200160018201548152602001600282015f9054906101000a900460ff16151515158152505090508060400151610d73576040517f08c379a0000000000000000000000000000000000000000000000000000000008152600401610d6a90611561565b60405180910390fd5b3373ffffffffffffffffffffffffffffffffffffffff16815f015173ffffffffffffffffffffffffffffffffffffffff1614610de4576040517f08c379a0000000000000000000000000000000000000000000000000000000008152600401610ddb90611840565b60405180910390fd5b5f5f8473ffffffffffffffffffffffffffffffffffffffff1673ffffffffffffffffffffffffffffffffffffffff1681526020019081526020015f205f8381526020019081526020015f205f5f82015f6101000a81549073ffffffffffffffffffffffffffffffffffffffff0219169055600182015f9055600282015f6101000a81549060ff02191690555050818373ffffffffffffffffffffffffffffffffffffffff167f8526cb6d400b8a551983c99e6d6fb1775b7a0deeb5d1e39d3ee65bc59e5eac2733604051610eb8919061185e565b60405180910390a3505050565b6001602052815f5260405f20602052805f5260405f205f91509150505481565b610eed610f21565b6002610eff610efa610f62565b610f8b565b5f0181905550565b6001610f19610f14610f62565b610f8b565b5f0181905550565b610f29610f94565b15610f60576040517f3ee5aeb500000000000000000000000000000000000000000000000000000000815260040160405180910390fd5b565b5f7f9b779b17422d0df92223018b32b4d1fa46e071723d6817e2486d003becc55f005f1b905090565b5f819050919050565b5f6002610fa7610fa2610f62565b610f8b565b5f015414905090565b5f5ffd5b5f73ffffffffffffffffffffffffffffffffffffffff82169050919050565b5f610fdd82610fb4565b9050919050565b610fed81610fd3565b8114610ff7575f5ffd5b50565b5f8135905061100881610fe4565b92915050565b5f819050919050565b6110208161100e565b811461102a575f5ffd5b50565b5f8135905061103b81611017565b92915050565b5f5f6040838503121561105757611056610fb0565b5b5f61106485828601610ffa565b92505060206110758582860161102d565b9150509250929050565b61108881610fd3565b82525050565b6110978161100e565b82525050565b5f8115159050919050565b6110b18161109d565b82525050565b5f6060820190506110ca5f83018661107f565b6110d7602083018561108e565b6110e460408301846110a8565b949350505050565b5f5f5f6060848603121561110357611102610fb0565b5b5f61111086828701610ffa565b93505060206111218682870161102d565b92505060406111328682870161102d565b9150509250925092565b5f60208201905061114f5f83018461108e565b92915050565b5f8151905061116381610fe4565b92915050565b5f6020828403121561117e5761117d610fb0565b5b5f61118b84828501611155565b91505092915050565b5f82825260208201905092915050565b7f42616e206b686f6e6720706861692063687520736f20687575207665206e61795f82015250565b5f6111d8602083611194565b91506111e3826111a4565b602082019050919050565b5f6020820190508181035f830152611205816111cc565b9050919050565b5f60408201905061121f5f83018561107f565b61122c602083018461107f565b9392505050565b61123c8161109d565b8114611246575f5ffd5b50565b5f8151905061125781611233565b92915050565b5f6020828403121561127257611271610fb0565b5b5f61127f84828501611249565b91505092915050565b7f4d61726b6574706c61636520636875612064756f6320617070726f76650000005f82015250565b5f6112bc601d83611194565b91506112c782611288565b602082019050919050565b5f6020820190508181035f8301526112e9816112b0565b9050919050565b7f4769612062616e2070686169206c6f6e20686f6e2030000000000000000000005f82015250565b5f611324601683611194565b915061132f826112f0565b602082019050919050565b5f6020820190508181035f83015261135181611318565b9050919050565b5f8151905061136681611017565b92915050565b5f6020828403121561138157611380610fb0565b5b5f61138e84828501611358565b91505092915050565b7f4e487b71000000000000000000000000000000000000000000000000000000005f52601160045260245ffd5b5f6113ce8261100e565b91506113d98361100e565b92508282026113e78161100e565b915082820484148315176113fe576113fd611397565b5b5092915050565b7f4e487b71000000000000000000000000000000000000000000000000000000005f52601260045260245ffd5b5f61143c8261100e565b91506114478361100e565b92508261145757611456611405565b5b828204905092915050565b7f4769612062616e206c6169206b686f6e672064756f632076756f7420717561205f8201527f3131302520676961206d6f632063686f74000000000000000000000000000000602082015250565b5f6114bc603183611194565b91506114c782611462565b604082019050919050565b5f6020820190508181035f8301526114e9816114b0565b9050919050565b5f6040820190506115035f83018561107f565b611510602083018461108e565b9392505050565b7f5665206e6179206b686f6e672064756f632072616f2062616e000000000000005f82015250565b5f61154b601983611194565b915061155682611517565b602082019050919050565b5f6020820190508181035f8301526115788161153f565b9050919050565b7f536f207469656e207468616e6820746f616e206b686f6e67206b686f7020766f5f8201527f69206769612062616e0000000000000000000000000000000000000000000000602082015250565b5f6115d9602983611194565b91506115e48261157f565b604082019050919050565b5f6020820190508181035f830152611606816115cd565b9050919050565b7f42616e206b686f6e6720746865207475206d756120766520637561206368696e5f8201527f68206d696e680000000000000000000000000000000000000000000000000000602082015250565b5f611667602683611194565b91506116728261160d565b604082019050919050565b5f6020820190508181035f8301526116948161165b565b9050919050565b7f4e67756f692062616e206b686f6e6720636f6e20736f20687575207665206e615f8201527f7900000000000000000000000000000000000000000000000000000000000000602082015250565b5f6116f5602183611194565b91506117008261169b565b604082019050919050565b5f6020820190508181035f830152611722816116e9565b9050919050565b5f60408201905061173c5f83018561108e565b611749602083018461108e565b9392505050565b5f5f6040838503121561176657611765610fb0565b5b5f61177385828601611155565b925050602061178485828601611358565b9150509250929050565b5f6117988261100e565b91506117a38361100e565b92508282039050818111156117bb576117ba611397565b5b92915050565b5f6060820190506117d45f83018661107f565b6117e1602083018561107f565b6117ee604083018461108e565b949350505050565b7f43686920636f206e67756f692062616e206d6f6920636f2074686520687579005f82015250565b5f61182a601f83611194565b9150611835826117f6565b602082019050919050565b5f6020820190508181035f8301526118578161181e565b9050919050565b5f6020820190506118715f83018461107f565b9291505056fea2646970667358221220ca1b2e91a4a9a9c1bf2afd4cca2409909ace77327e4b3a5d3ea4403528ddbe8664736f6c634300081c0033",
  "linkReferences": {},
  "deployedLinkReferences": {},
  "immutableReferences": {},
  "inputSourceName": "project/contracts/TicketMarketplace.sol",
  "buildInfoId": "solc-0_8_28-1254c92d2453d412ef7d2d09d1b739d4a5cdfe62"
}